:100000000C942B000C9453000C9453000C9453004C
:100010000C9453000C9453000C9453000C94530014
:100020000C9453000C9453000C9453000C94530004
:100030000C9453000C9453000C9453000C945300F4
:100040000C94A1000C9453000C9453000C94530096
:100050000C945300550011241FBECFE5D8E0DEBF3D
:10006000CDBF10E0A0E6B0E0EAECF6E002C00590FB
:100070000D92A438B107D9F710E0A4E8B0E001C0B0
:100080001D92A538B107E1F710E0C6E5D0E004C045
:100090002297FE010E941A03C435D107C9F70E94B6
:1000A0005A000C9463030C94000084E890E00E94D2
:1000B000F1000895DF93CF93CDB7DEB768970FB601
:1000C000F894DEBF0FBECDBF84E890E00E94CA0264
:1000D000DE011196E0E6F0E08CE001900D92815097
:1000E000E1F7DE011D96ECE6F0E08CE001900D9268
:1000F0008150E1F784E890E00E94FD0284E890E0FE
:10010000BE016F5F7F4F0E94050384E890E00E946C
:10011000010384E890E0BE01635F7F4F0E94050306
:1001200080E197E229E130E0F9013197F1F7019799
:10013000D9F73E9A3F983D9A329A339A379A369A2F
:10014000FFCF1F920F920FB60F921124EF92FF92E2
:100150000F931F932F933F934F935F936F937F93CF
:100160008F939F93AF93BF93EF93FF93DF93CF93BF
:1001700000D000D0CDB7DEB784B190E07E01089406
:10018000E11CF11CB7014AE050E00E941E0304E8A4
:1001900010E0C8010E94FD02C80168E770E00E94FB
:1001A0000503C801B7010E9405030F900F900F903F
:1001B0000F90CF91DF91FF91EF91BF91AF919F9100
:1001C0008F917F916F915F914F913F912F911F91EF
:1001D0000F91FF90EF900F900FBE0F901F9018950A
:1001E000089508951F93DF93CF93CDB7DEB7289777
:1001F0000FB6F894DEBF0FBECDBF862F60FF02C0E2
:10020000969A01C0969881FF02C0979A01C097986C
:1002100082FF02C0AA9A01C0AA9883FF02C0AB9ACB
:1002200001C0AB9884FF02C0AC9A01C0AC9885FFB6
:1002300002C0AD9A01C0AD9886FF02C0AE9A01C05F
:10024000AE9867FF02C0AF9A01C0AF9819821A82B8
:100250001B821C821D821E821F8218863BC08981E0
:100260002A813B814C816D81EE81AF811885B82F49
:10027000BF5F91E0B81708F090E0F92FF20F81E02E
:10028000F21708F080E0782F730F81E0731708F001
:1002900080E0582F540F81E0541708F080E0382F89
:1002A000360F81E0361708F080E0282F2E0F81E00E
:1002B0002E1708F080E0982F9A0F81E09A1708F027
:1002C00080E0810FB983FA837B835C833D832E8337
:1002D0009F83888779816A815B814C813D812E81F2
:1002E0009F818885882379F4992369F4222359F41E
:1002F000332349F4442339F4552329F4662319F4AC
:10030000743608F4ACCFC29828960FB6F894DEBFC6
:100310000FBECDBFCF91DF911F9108959F92AF92F5
:10032000BF92CF92DF92EF92FF920F931F93DF93D2
:10033000CF93CDB7DEB728970FB6F894DEBF0FBEC8
:10034000CDBF902EA12EB22EC32ED42EE52EF62E8A
:10035000072F19821A821B821C821D821E821F8215
:1003600018863BC08981EA81FB81AC812D814E8159
:100370006F811885782F7F5F91E0781708F090E003
:10038000592F5E0F81E05E1708F080E0382F3F0F95
:1003900081E03F1708F080E0B82FBA0F81E0BA176C
:1003A00008F080E0F82FF20F81E0F21708F080E00B
:1003B000E82FE40F81E0E41708F080E0982F960F13
:1003C00081E0961708F080E0810F79835A833B83A0
:1003D000BC83FD83EE839F83888739812A81BB811B
:1003E000AC81FD81EE819F818885801708F4BACFAA
:1003F000081709F59F1508F4B5CFF916E1F4EE15C5
:1004000008F4B0CFEE16B9F4FD1508F4ABCFDF1643
:1004100091F4AC1508F4A6CFCA1669F4BB1508F41C
:10042000A1CFBB1641F42A1508F49CCFA21619F4EB
:10043000391508F497CF28960FB6F894DEBF0FBE93
:10044000CDBFCF91DF911F910F91FF90EF90DF9083
:10045000CF90BF90AF909F900895C0980895C09A94
:100460000895C1980895C19A08951F93DF93CF937B
:10047000CDB7DEB728970FB6F894DEBF0FBECDBF5D
:1004800019821A821B821C821D821E821F8218867C
:100490003BC089812A813B814C816D81EE81AF8196
:1004A0001885B82FBF5F91E0B81708F090E0F92FDA
:1004B000F20F81E0F21708F080E0782F730F81E0EF
:1004C000731708F080E0582F540F81E0541708F09C
:1004D00080E0382F360F81E0361708F080E0282FB3
:1004E0002E0F81E02E1708F080E0982F9A0F81E000
:1004F0009A1708F080E0810FB983FA837B835C83CD
:100500003D832E839F83888779816A815B814C81BB
:100510003D812E819F818885882379F4992369F410
:10052000222359F4332349F4442339F4552329F47D
:10053000662319F4743608F4ACCFC29A28960FB625
:10054000F894DEBF0FBECDBFCF91DF911F9108950C
:10055000FF920F931F938C01F62EC198C09A0E94B0
:100560003502C8016F2D0E94F2001F910F91FF907C
:100570000895FF920F931F938C01F62EC098C19897
:100580000E943502C8016F2D0E94F2001F910F9149
:10059000FF9008950F931F938C018E9A8F9AA29AC1
:1005A000A39AA49AA59AA69AA79ABA9AB89AB99A17
:1005B00096989798AA98AB98AC98AD98AE98AF9843
:1005C000C298C098C19868E30E94B902C8016EE061
:1005D0000E94B902C80166E00E94B902C80160E841
:1005E0000E94B902C80161E00E94B902C8016CE032
:1005F0000E94B9021F910F91089561E00E94B90213
:10060000089560EC0E94B90208950F931F93CF9351
:10061000DF938C01EB0104C0C8010E94A80221965F
:1006200068816623C9F7DF91CF911F910F910895DB
:10063000EE0FFF1F0590F491E02D0994FB019F013F
:10064000E8944230C4F04532B4F44A3029F497FBC0
:100650001EF4909581959F4F642F77270E944F033A
:10066000805D8A330CF0895D8193CB010097A1F7FF
:1006700016F45DE251931082C9010C943F03DC0132
:10068000FC01672F71917723E1F7329704C07C91C9
:100690006D9370836291AE17BF07C8F30895AA1BCC
:1006A000BB1B51E107C0AA1FBB1FA617B70710F05D
:1006B000A61BB70B881F991F5A95A9F7809590958F
:0A06C000BC01CD010895F894FFCFAE
:1006CA002020205553455220504F540020202020EE
:1006DA004558414D504C45004144432056414C55E4
:0406EA00453A20006D
:00000001FF
